{
  "_format": "hh-sol-artifact-1",
  "contractName": "TokenERC11553",
  "sourceName": "contracts/erc1155.sol",
  "abi": [
    {
      "inputs": [],
      "stateMutability": "nonpayable",
      "type": "constructor"
    },
    {
      "anonymous": false,
      "inputs": [
        {
          "indexed": true,
          "internalType": "address",
          "name": "account",
          "type": "address"
        },
        {
          "indexed": true,
          "internalType": "address",
          "name": "operator",
          "type": "address"
        },
        {
          "indexed": false,
          "internalType": "bool",
          "name": "approved",
          "type": "bool"
        }
      ],
      "name": "ApprovalForAll",
      "type": "event"
    },
    {
      "anonymous": false,
      "inputs": [
        {
          "indexed": true,
          "internalType": "address",
          "name": "operator",
          "type": "address"
        },
        {
          "indexed": true,
          "internalType": "address",
          "name": "from",
          "type": "address"
        },
        {
          "indexed": true,
          "internalType": "address",
          "name": "to",
          "type": "address"
        },
        {
          "indexed": false,
          "internalType": "uint256[]",
          "name": "ids",
          "type": "uint256[]"
        },
        {
          "indexed": false,
          "internalType": "uint256[]",
          "name": "values",
          "type": "uint256[]"
        }
      ],
      "name": "TransferBatch",
      "type": "event"
    },
    {
      "anonymous": false,
      "inputs": [
        {
          "indexed": true,
          "internalType": "address",
          "name": "operator",
          "type": "address"
        },
        {
          "indexed": true,
          "internalType": "address",
          "name": "from",
          "type": "address"
        },
        {
          "indexed": true,
          "internalType": "address",
          "name": "to",
          "type": "address"
        },
        {
          "indexed": false,
          "internalType": "uint256",
          "name": "id",
          "type": "uint256"
        },
        {
          "indexed": false,
          "internalType": "uint256",
          "name": "value",
          "type": "uint256"
        }
      ],
      "name": "TransferSingle",
      "type": "event"
    },
    {
      "anonymous": false,
      "inputs": [
        {
          "indexed": false,
          "internalType": "string",
          "name": "value",
          "type": "string"
        },
        {
          "indexed": true,
          "internalType": "uint256",
          "name": "id",
          "type": "uint256"
        }
      ],
      "name": "URI",
      "type": "event"
    },
    {
      "inputs": [],
      "name": "Minted",
      "outputs": [
        {
          "internalType": "uint256",
          "name": "",
          "type": "uint256"
        }
      ],
      "stateMutability": "view",
      "type": "function"
    },
    {
      "inputs": [
        {
          "internalType": "address",
          "name": "account",
          "type": "address"
        },
        {
          "internalType": "uint256",
          "name": "id",
          "type": "uint256"
        }
      ],
      "name": "balanceOf",
      "outputs": [
        {
          "internalType": "uint256",
          "name": "",
          "type": "uint256"
        }
      ],
      "stateMutability": "view",
      "type": "function"
    },
    {
      "inputs": [
        {
          "internalType": "address[]",
          "name": "accounts",
          "type": "address[]"
        },
        {
          "internalType": "uint256[]",
          "name": "ids",
          "type": "uint256[]"
        }
      ],
      "name": "balanceOfBatch",
      "outputs": [
        {
          "internalType": "uint256[]",
          "name": "",
          "type": "uint256[]"
        }
      ],
      "stateMutability": "view",
      "type": "function"
    },
    {
      "inputs": [],
      "name": "etherValue",
      "outputs": [
        {
          "internalType": "uint256",
          "name": "",
          "type": "uint256"
        }
      ],
      "stateMutability": "view",
      "type": "function"
    },
    {
      "inputs": [
        {
          "internalType": "address",
          "name": "account",
          "type": "address"
        },
        {
          "internalType": "address",
          "name": "operator",
          "type": "address"
        }
      ],
      "name": "isApprovedForAll",
      "outputs": [
        {
          "internalType": "bool",
          "name": "",
          "type": "bool"
        }
      ],
      "stateMutability": "view",
      "type": "function"
    },
    {
      "inputs": [],
      "name": "mint",
      "outputs": [
        {
          "internalType": "uint256",
          "name": "",
          "type": "uint256"
        }
      ],
      "stateMutability": "payable",
      "type": "function"
    },
    {
      "inputs": [
        {
          "internalType": "address",
          "name": "from",
          "type": "address"
        },
        {
          "internalType": "address",
          "name": "to",
          "type": "address"
        },
        {
          "internalType": "uint256[]",
          "name": "ids",
          "type": "uint256[]"
        },
        {
          "internalType": "uint256[]",
          "name": "amounts",
          "type": "uint256[]"
        },
        {
          "internalType": "bytes",
          "name": "data",
          "type": "bytes"
        }
      ],
      "name": "safeBatchTransferFrom",
      "outputs": [],
      "stateMutability": "nonpayable",
      "type": "function"
    },
    {
      "inputs": [
        {
          "internalType": "address",
          "name": "from",
          "type": "address"
        },
        {
          "internalType": "address",
          "name": "to",
          "type": "address"
        },
        {
          "internalType": "uint256",
          "name": "id",
          "type": "uint256"
        },
        {
          "internalType": "uint256",
          "name": "amount",
          "type": "uint256"
        },
        {
          "internalType": "bytes",
          "name": "data",
          "type": "bytes"
        }
      ],
      "name": "safeTransferFrom",
      "outputs": [],
      "stateMutability": "nonpayable",
      "type": "function"
    },
    {
      "inputs": [
        {
          "internalType": "address",
          "name": "operator",
          "type": "address"
        },
        {
          "internalType": "bool",
          "name": "approved",
          "type": "bool"
        }
      ],
      "name": "setApprovalForAll",
      "outputs": [],
      "stateMutability": "nonpayable",
      "type": "function"
    },
    {
      "inputs": [
        {
          "internalType": "bytes4",
          "name": "interfaceId",
          "type": "bytes4"
        }
      ],
      "name": "supportsInterface",
      "outputs": [
        {
          "internalType": "bool",
          "name": "",
          "type": "bool"
        }
      ],
      "stateMutability": "view",
      "type": "function"
    },
    {
      "inputs": [
        {
          "internalType": "uint256",
          "name": "",
          "type": "uint256"
        }
      ],
      "name": "uri",
      "outputs": [
        {
          "internalType": "string",
          "name": "",
          "type": "string"
        }
      ],
      "stateMutability": "view",
      "type": "function"
    }
  ],
  "bytecode": "0x608060405260006004553480156200001657600080fd5b50604051806020016040528060008152506200003f6301ffc9a760e01b6200008760201b60201c565b62000050816200019060201b60201c565b6200006863d9b67a2660e01b6200008760201b60201c565b62000080630e89341c60e01b6200008760201b60201c565b5062000262565b63ffffffff60e01b817bffffffffffffffffffffffffffffffffffffffffffffffffffffffff1916141562000124576040517f08c379a000000000000000000000000000000000000000000000000000000000815260040180806020018281038252601c8152602001807f4552433136353a20696e76616c696420696e746572666163652069640000000081525060200191505060405180910390fd5b6001600080837bffffffffffffffffffffffffffffffffffffffffffffffffffffffff19167bffffffffffffffffffffffffffffffffffffffffffffffffffffffff1916815260200190815260200160002060006101000a81548160ff02191690831515021790555050565b8060039080519060200190620001a8929190620001ac565b5050565b828054600181600116156101000203166002900490600052602060002090601f016020900481019282620001e4576000855562000230565b82601f10620001ff57805160ff191683800117855562000230565b8280016001018555821562000230579182015b828111156200022f57825182559160200191906001019062000212565b5b5090506200023f919062000243565b5090565b5b808211156200025e57600081600090555060010162000244565b5090565b61261780620002726000396000f3fe60806040526004361061009b5760003560e01c80634e1273f4116100645780634e1273f414610481578063a22cb4651461062f578063d3abfc061461068c578063e923f1ae146106b7578063e985e9c5146106e2578063f242432a146107695761009b565b8062fdd58e146100a057806301ffc9a71461010f5780630e89341c1461017f5780631249c58b146102335780632eb2c2d614610251575b600080fd5b3480156100ac57600080fd5b506100f9600480360360408110156100c357600080fd5b81019080803573ffffffffffffffffffffffffffffffffffffffff16906020019092919080359060200190929190505050610885565b6040518082815260200191505060405180910390f35b34801561011b57600080fd5b506101676004803603602081101561013257600080fd5b8101908080357bffffffffffffffffffffffffffffffffffffffffffffffffffffffff19169060200190929190505050610965565b60405180821515815260200191505060405180910390f35b34801561018b57600080fd5b506101b8600480360360208110156101a257600080fd5b81019080803590602001909291905050506109cc565b6040518080602001828103825283818151815260200191508051906020019080838360005b838110156101f85780820151818401526020810190506101dd565b50505050905090810190601f1680156102255780820380516001836020036101000a031916815260200191505b509250505060405180910390f35b61023b610a70565b6040518082815260200191505060405180910390f35b34801561025d57600080fd5b5061047f600480360360a081101561027457600080fd5b81019080803573ffffffffffffffffffffffffffffffffffffffff169060200190929190803573ffffffffffffffffffffffffffffffffffffffff169060200190929190803590602001906401000000008111156102d157600080fd5b8201836020820111156102e357600080fd5b8035906020019184602083028401116401000000008311171561030557600080fd5b919080806020026020016040519081016040528093929190818152602001838360200280828437600081840152601f19601f8201169050808301925050505050505091929192908035906020019064010000000081111561036557600080fd5b82018360208201111561037757600080fd5b8035906020019184602083028401116401000000008311171561039957600080fd5b919080806020026020016040519081016040528093929190818152602001838360200280828437600081840152601f19601f820116905080830192505050505050509192919290803590602001906401000000008111156103f957600080fd5b82018360208201111561040b57600080fd5b8035906020019184600183028401116401000000008311171561042d57600080fd5b91908080601f016020809104026020016040519081016040528093929190818152602001838380828437600081840152601f19601f820116905080830192505050505050509192919290505050610b30565b005b34801561048d57600080fd5b506105d8600480360360408110156104a457600080fd5b81019080803590602001906401000000008111156104c157600080fd5b8201836020820111156104d357600080fd5b803590602001918460208302840111640100000000831117156104f557600080fd5b919080806020026020016040519081016040528093929190818152602001838360200280828437600081840152601f19601f8201169050808301925050505050505091929192908035906020019064010000000081111561055557600080fd5b82018360208201111561056757600080fd5b8035906020019184602083028401116401000000008311171561058957600080fd5b919080806020026020016040519081016040528093929190818152602001838360200280828437600081840152601f19601f820116905080830192505050505050509192919290505050610fbb565b6040518080602001828103825283818151815260200191508051906020019060200280838360005b8381101561061b578082015181840152602081019050610600565b505050509050019250505060405180910390f35b34801561063b57600080fd5b5061068a6004803603604081101561065257600080fd5b81019080803573ffffffffffffffffffffffffffffffffffffffff1690602001909291908035151590602001909291905050506111ad565b005b34801561069857600080fd5b506106a1611346565b6040518082815260200191505060405180910390f35b3480156106c357600080fd5b506106cc611352565b6040518082815260200191505060405180910390f35b3480156106ee57600080fd5b506107516004803603604081101561070557600080fd5b81019080803573ffffffffffffffffffffffffffffffffffffffff169060200190929190803573ffffffffffffffffffffffffffffffffffffffff169060200190929190505050611358565b60405180821515815260200191505060405180910390f35b34801561077557600080fd5b50610883600480360360a081101561078c57600080fd5b81019080803573ffffffffffffffffffffffffffffffffffffffff169060200190929190803573ffffffffffffffffffffffffffffffffffffffff1690602001909291908035906020019092919080359060200190929190803590602001906401000000008111156107fd57600080fd5b82018360208201111561080f57600080fd5b8035906020019184600183028401116401000000008311171561083157600080fd5b91908080601f016020809104026020016040519081016040528093929190818152602001838380828437600081840152601f19601f8201169050808301925050505050505091929192905050506113ec565b005b60008073ffffffffffffffffffffffffffffffffffffffff168373ffffffffffffffffffffffffffffffffffffffff16141561090c576040517f08c379a000000000000000000000000000000000000000000000000000000000815260040180806020018281038252602b815260200180612441602b913960400191505060405180910390fd5b6001600083815260200190815260200160002060008473ffffffffffffffffffffffffffffffffffffffff1673ffffffffffffffffffffffffffffffffffffffff16815260200190815260200160002054905092915050565b6000806000837bffffffffffffffffffffffffffffffffffffffffffffffffffffffff19167bffffffffffffffffffffffffffffffffffffffffffffffffffffffff1916815260200190815260200160002060009054906101000a900460ff169050919050565b606060038054600181600116156101000203166002900480601f016020809104026020016040519081016040528092919081815260200182805460018160011615610100020316600290048015610a645780601f10610a3957610100808354040283529160200191610a64565b820191906000526020600020905b815481529060010190602001808311610a4757829003601f168201915b50505050509050919050565b6000670de0b6b3a7640000341015610ad3576040517f08c379a000000000000000000000000000000000000000000000000000000000815260040180806020018281038252602581526020018061241c6025913960400191505060405180910390fd5b6000610aeb600160045461176190919063ffffffff16565b9050610b223382610b0d670de0b6b3a7640000346117e990919063ffffffff16565b60405180602001604052806000815250611833565b806004819055508091505090565b8151835114610b8a576040517f08c379a00000000000000000000000000000000000000000000000000000000081526004018080602001828103825260288152602001806125996028913960400191505060405180910390fd5b600073ffffffffffffffffffffffffffffffffffffffff168473ffffffffffffffffffffffffffffffffffffffff161415610c10576040517f08c379a00000000000000000000000000000000000000000000000000000000081526004018080602001828103825260258152602001806124c66025913960400191505060405180910390fd5b610c18611a36565b73ffffffffffffffffffffffffffffffffffffffff168573ffffffffffffffffffffffffffffffffffffffff161480610c5e5750610c5d85610c58611a36565b611358565b5b610cb3576040517f08c379a00000000000000000000000000000000000000000000000000000000081526004018080602001828103825260328152602001806124eb6032913960400191505060405180910390fd5b6000610cbd611a36565b9050610ccd818787878787611a3e565b60005b8451811015610e9e576000858281518110610ce757fe5b602002602001015190506000858381518110610cff57fe5b60200260200101519050610d86816040518060600160405280602a815260200161251d602a91396001600086815260200190815260200160002060008d73ffffffffffffffffffffffffffffffffffffffff1673ffffffffffffffffffffffffffffffffffffffff16815260200190815260200160002054611a469092919063ffffffff16565b6001600084815260200190815260200160002060008b73ffffffffffffffffffffffffffffffffffffffff1673ffffffffffffffffffffffffffffffffffffffff16815260200190815260200160002081905550610e3d816001600085815260200190815260200160002060008b73ffffffffffffffffffffffffffffffffffffffff1673ffffffffffffffffffffffffffffffffffffffff1681526020019081526020016000205461176190919063ffffffff16565b6001600084815260200190815260200160002060008a73ffffffffffffffffffffffffffffffffffffffff1673ffffffffffffffffffffffffffffffffffffffff168152602001908152602001600020819055505050806001019050610cd0565b508473ffffffffffffffffffffffffffffffffffffffff168673ffffffffffffffffffffffffffffffffffffffff168273ffffffffffffffffffffffffffffffffffffffff167f4a39dc06d4c0dbc64b70af90fd698a233a518aa5d07e595d983b8c0526c8f7fb8787604051808060200180602001838103835285818151815260200191508051906020019060200280838360005b83811015610f4e578082015181840152602081019050610f33565b50505050905001838103825284818151815260200191508051906020019060200280838360005b83811015610f90578082015181840152602081019050610f75565b5050505090500194505050505060405180910390a4610fb3818787878787611b06565b505050505050565b60608151835114611017576040517f08c379a00000000000000000000000000000000000000000000000000000000081526004018080602001828103825260298152602001806125706029913960400191505060405180910390fd5b6060835167ffffffffffffffff8111801561103157600080fd5b506040519080825280602002602001820160405280156110605781602001602082028036833780820191505090505b50905060005b84518110156111a257600073ffffffffffffffffffffffffffffffffffffffff1685828151811061109357fe5b602002602001015173ffffffffffffffffffffffffffffffffffffffff161415611108576040517f08c379a000000000000000000000000000000000000000000000000000000000815260040180806020018281038252603181526020018061246c6031913960400191505060405180910390fd5b6001600085838151811061111857fe5b60200260200101518152602001908152602001600020600086838151811061113c57fe5b602002602001015173ffffffffffffffffffffffffffffffffffffffff1673ffffffffffffffffffffffffffffffffffffffff1681526020019081526020016000205482828151811061118b57fe5b602002602001018181525050806001019050611066565b508091505092915050565b8173ffffffffffffffffffffffffffffffffffffffff166111cc611a36565b73ffffffffffffffffffffffffffffffffffffffff161415611239576040517f08c379a00000000000000000000000000000000000000000000000000000000081526004018080602001828103825260298152602001806125476029913960400191505060405180910390fd5b8060026000611246611a36565b73ffffffffffffffffffffffffffffffffffffffff1673ffffffffffffffffffffffffffffffffffffffff16815260200190815260200160002060008473ffffffffffffffffffffffffffffffffffffffff1673ffffffffffffffffffffffffffffffffffffffff16815260200190815260200160002060006101000a81548160ff0219169083151502179055508173ffffffffffffffffffffffffffffffffffffffff166112f3611a36565b73ffffffffffffffffffffffffffffffffffffffff167f17307eab39ab6107e8899845ad3d59bd9653f200f220920489ca2b5937696c318360405180821515815260200191505060405180910390a35050565b670de0b6b3a764000081565b60045481565b6000600260008473ffffffffffffffffffffffffffffffffffffffff1673ffffffffffffffffffffffffffffffffffffffff16815260200190815260200160002060008373ffffffffffffffffffffffffffffffffffffffff1673ffffffffffffffffffffffffffffffffffffffff16815260200190815260200160002060009054906101000a900460ff16905092915050565b600073ffffffffffffffffffffffffffffffffffffffff168473ffffffffffffffffffffffffffffffffffffffff161415611472576040517f08c379a00000000000000000000000000000000000000000000000000000000081526004018080602001828103825260258152602001806124c66025913960400191505060405180910390fd5b61147a611a36565b73ffffffffffffffffffffffffffffffffffffffff168573ffffffffffffffffffffffffffffffffffffffff1614806114c057506114bf856114ba611a36565b611358565b5b611515576040517f08c379a000000000000000000000000000000000000000000000000000000000815260040180806020018281038252602981526020018061249d6029913960400191505060405180910390fd5b600061151f611a36565b905061153f81878761153088611e95565b61153988611e95565b87611a3e565b6115bc836040518060600160405280602a815260200161251d602a91396001600088815260200190815260200160002060008a73ffffffffffffffffffffffffffffffffffffffff1673ffffffffffffffffffffffffffffffffffffffff16815260200190815260200160002054611a469092919063ffffffff16565b6001600086815260200190815260200160002060008873ffffffffffffffffffffffffffffffffffffffff1673ffffffffffffffffffffffffffffffffffffffff16815260200190815260200160002081905550611673836001600087815260200190815260200160002060008873ffffffffffffffffffffffffffffffffffffffff1673ffffffffffffffffffffffffffffffffffffffff1681526020019081526020016000205461176190919063ffffffff16565b6001600086815260200190815260200160002060008773ffffffffffffffffffffffffffffffffffffffff1673ffffffffffffffffffffffffffffffffffffffff168152602001908152602001600020819055508473ffffffffffffffffffffffffffffffffffffffff168673ffffffffffffffffffffffffffffffffffffffff168273ffffffffffffffffffffffffffffffffffffffff167fc3d58168c5ae7397731d063d5bbf3d657854427343f4c083240f7aacaa2d0f628787604051808381526020018281526020019250505060405180910390a4611759818787878787611f05565b505050505050565b6000808284019050838110156117df576040517f08c379a000000000000000000000000000000000000000000000000000000000815260040180806020018281038252601b8152602001807f536166654d6174683a206164646974696f6e206f766572666c6f77000000000081525060200191505060405180910390fd5b8091505092915050565b600061182b83836040518060400160405280601a81526020017f536166654d6174683a206469766973696f6e206279207a65726f000000000000815250612212565b905092915050565b600073ffffffffffffffffffffffffffffffffffffffff168473ffffffffffffffffffffffffffffffffffffffff1614156118b9576040517f08c379a00000000000000000000000000000000000000000000000000000000081526004018080602001828103825260218152602001806125c16021913960400191505060405180910390fd5b60006118c3611a36565b90506118e4816000876118d588611e95565b6118de88611e95565b87611a3e565b611947836001600087815260200190815260200160002060008873ffffffffffffffffffffffffffffffffffffffff1673ffffffffffffffffffffffffffffffffffffffff1681526020019081526020016000205461176190919063ffffffff16565b6001600086815260200190815260200160002060008773ffffffffffffffffffffffffffffffffffffffff1673ffffffffffffffffffffffffffffffffffffffff168152602001908152602001600020819055508473ffffffffffffffffffffffffffffffffffffffff16600073ffffffffffffffffffffffffffffffffffffffff168273ffffffffffffffffffffffffffffffffffffffff167fc3d58168c5ae7397731d063d5bbf3d657854427343f4c083240f7aacaa2d0f628787604051808381526020018281526020019250505060405180910390a4611a2f81600087878787611f05565b5050505050565b600033905090565b505050505050565b6000838311158290611af3576040517f08c379a00000000000000000000000000000000000000000000000000000000081526004018080602001828103825283818151815260200191508051906020019080838360005b83811015611ab8578082015181840152602081019050611a9d565b50505050905090810190601f168015611ae55780820380516001836020036101000a031916815260200191505b509250505060405180910390fd5b5060008385039050809150509392505050565b611b258473ffffffffffffffffffffffffffffffffffffffff166122d8565b15611e8d578373ffffffffffffffffffffffffffffffffffffffff1663bc197c8187878686866040518663ffffffff1660e01b8152600401808673ffffffffffffffffffffffffffffffffffffffff1681526020018573ffffffffffffffffffffffffffffffffffffffff168152602001806020018060200180602001848103845287818151815260200191508051906020019060200280838360005b83811015611bdd578082015181840152602081019050611bc2565b50505050905001848103835286818151815260200191508051906020019060200280838360005b83811015611c1f578082015181840152602081019050611c04565b50505050905001848103825285818151815260200191508051906020019080838360005b83811015611c5e578082015181840152602081019050611c43565b50505050905090810190601f168015611c8b5780820380516001836020036101000a031916815260200191505b5098505050505050505050602060405180830381600087803b158015611cb057600080fd5b505af1925050508015611ce457506040513d6020811015611cd057600080fd5b810190808051906020019092919050505060015b611dee57611cf0612309565b80611cfb5750611d9d565b806040517f08c379a00000000000000000000000000000000000000000000000000000000081526004018080602001828103825283818151815260200191508051906020019080838360005b83811015611d62578082015181840152602081019050611d47565b50505050905090810190601f168015611d8f5780820380516001836020036101000a031916815260200191505b509250505060405180910390fd5b6040517f08c379a00000000000000000000000000000000000000000000000000000000081526004018080602001828103825260348152602001806123c06034913960400191505060405180910390fd5b63bc197c8160e01b7bffffffffffffffffffffffffffffffffffffffffffffffffffffffff1916817bffffffffffffffffffffffffffffffffffffffffffffffffffffffff191614611e8b576040517f08c379a00000000000000000000000000000000000000000000000000000000081526004018080602001828103825260288152602001806123f46028913960400191505060405180910390fd5b505b505050505050565b606080600167ffffffffffffffff81118015611eb057600080fd5b50604051908082528060200260200182016040528015611edf5781602001602082028036833780820191505090505b5090508281600081518110611ef057fe5b60200260200101818152505080915050919050565b611f248473ffffffffffffffffffffffffffffffffffffffff166122d8565b1561220a578373ffffffffffffffffffffffffffffffffffffffff1663f23a6e6187878686866040518663ffffffff1660e01b8152600401808673ffffffffffffffffffffffffffffffffffffffff1681526020018573ffffffffffffffffffffffffffffffffffffffff16815260200184815260200183815260200180602001828103825283818151815260200191508051906020019080838360005b83811015611fdd578082015181840152602081019050611fc2565b50505050905090810190601f16801561200a5780820380516001836020036101000a031916815260200191505b509650505050505050602060405180830381600087803b15801561202d57600080fd5b505af192505050801561206157506040513d602081101561204d57600080fd5b810190808051906020019092919050505060015b61216b5761206d612309565b80612078575061211a565b806040517f08c379a00000000000000000000000000000000000000000000000000000000081526004018080602001828103825283818151815260200191508051906020019080838360005b838110156120df5780820151818401526020810190506120c4565b50505050905090810190601f16801561210c5780820380516001836020036101000a031916815260200191505b509250505060405180910390fd5b6040517f08c379a00000000000000000000000000000000000000000000000000000000081526004018080602001828103825260348152602001806123c06034913960400191505060405180910390fd5b63f23a6e6160e01b7bffffffffffffffffffffffffffffffffffffffffffffffffffffffff1916817bffffffffffffffffffffffffffffffffffffffffffffffffffffffff191614612208576040517f08c379a00000000000000000000000000000000000000000000000000000000081526004018080602001828103825260288152602001806123f46028913960400191505060405180910390fd5b505b505050505050565b600080831182906122be576040517f08c379a00000000000000000000000000000000000000000000000000000000081526004018080602001828103825283818151815260200191508051906020019080838360005b83811015612283578082015181840152602081019050612268565b50505050905090810190601f1680156122b05780820380516001836020036101000a031916815260200191505b509250505060405180910390fd5b5060008385816122ca57fe5b049050809150509392505050565b600080823b905060008111915050919050565b6000601f19601f8301169050919050565b60008160e01c9050919050565b600060443d1015612319576123bc565b60046000803e61232a6000516122fc565b6308c379a0811461233b57506123bc565b60405160043d036004823e80513d602482011167ffffffffffffffff82111715612367575050506123bc565b808201805167ffffffffffffffff8111156123865750505050506123bc565b8060208301013d85018111156123a1575050505050506123bc565b6123aa826122eb565b60208401016040528296505050505050505b9056fe455243313135353a207472616e7366657220746f206e6f6e2045524331313535526563656976657220696d706c656d656e746572455243313135353a204552433131353552656365697665722072656a656374656420746f6b656e7356616c7565206d7573742062652031206f72206d6f72652065746820666f72206d696e742e455243313135353a2062616c616e636520717565727920666f7220746865207a65726f2061646472657373455243313135353a2062617463682062616c616e636520717565727920666f7220746865207a65726f2061646472657373455243313135353a2063616c6c6572206973206e6f74206f776e6572206e6f7220617070726f766564455243313135353a207472616e7366657220746f20746865207a65726f2061646472657373455243313135353a207472616e736665722063616c6c6572206973206e6f74206f776e6572206e6f7220617070726f766564455243313135353a20696e73756666696369656e742062616c616e636520666f72207472616e73666572455243313135353a2073657474696e6720617070726f76616c2073746174757320666f722073656c66455243313135353a206163636f756e747320616e6420696473206c656e677468206d69736d61746368455243313135353a2069647320616e6420616d6f756e7473206c656e677468206d69736d61746368455243313135353a206d696e7420746f20746865207a65726f2061646472657373a264697066735822122085f8d55826cb3e478d9c5028478da020bd597f46cc3edad683d139f3b801e5f664736f6c63430007040033",
  "linkReferences": {},
  "deployedLinkReferences": {}
}